:020000000108f5
:020002000f00ed
:020004001100e9
:020006001f08d1
:020008002100d5
:02000a002c08c0
:02000c002e00c4
:02000e003900b7
:020010003b08ab
:02001200530099
:02001400550095
:02001600560092
:02001800580886
:02001a00600084
:02001c006e086c
:02001e00700868
:020020007e0060
:020022007f0855
:02002400800852
:0200260085084b
:020028008b004b
:02002a008d0047
:02002c00980832
:02002e009d082b
:02003000a0002e
:02003200a10823
:02003400a20820
:02003600a50023
:02003800b3080b
:02003a00ba0802
:02003c00be0004
:02003e00cf00f1
:02004000d608e0
:02004200dd00df
:02004400e008d2
:02004600e100d7
:02004800ea08c4
:02004a00ee00c6
:02004c00ef08bb
:02004e00f108b7
:02005000f204b8
:020052000204a6
:02005400030c9b
:020056000404a0
:02005800050c95
:02005a00060c92
:02005c00070497
:02005e00080494
:02006000090c89
:020062000a0c86
:020064000b048b
:020066000c0c80
:020068000d0485
:02006a000e0482
:02006c000f0c77
:02006e0010047c
:02007000110c71
:02007200120c6e
:02007400130473
:02007600140c68
:0200780015046d
:02007a0016046a
:02007c00170c5f
:02007e00180c5c
:02008000190461
:020082001a045e
:020084001b0c53
:020086001c0458
:020088001d0c4d
:02008a001e0c4a
:02008c001f044f
:02008e0020044c
:020090000e0858
:02009200100854
:020094001c0846
:02009600210047
:02009800220044
:02009a002b0039
:02009c002d0035
:02009e00380820
:0200a0003a0024
:0200a20041001b
:0200a400520800
:0200a6005408fc
:0200a800550001
:0200aa005708f5
:0200ac006d08dd
:0200ae006f00e1
:0200b0007d00d1
:0200b2007f08c5
:0200b4008008c2
:0200b6008100c7
:0200b8008608b8
:0200ba008c08b0
:0200bc008e00b4
:0200be009900a7
:0200c0009e0898
:0200c200a20892
:0200c400a30097
:0200c600a60092
:0200c800b40082
:0200ca00bb0079
:0200cc00bf086b
:0200ce00c10867
:0200d000d00856
:0200d200d70055
:0200d400de004c
:0200d600e20046
:0200d800eb003b
:0200da00ef082d
:0200dc00f00032
:0200de00f20826
:0200e000f30c1f
:0200e200220cee
:0200e4002304f3
:0200e600240ce8
:0200e8002504ed
:0200ea002604ea
:0200ec00270cdf
:0200ee00280cdc
:0200f0002904e1
:0200f2002a04de
:0200f4002b0cd3
:0200f6002c04d8
:0200f8002d0ccd
:0200fa002e0cca
:0200fc002f04cf
:0200fe00300cc4
:020100003104c8
:020102003204c5
:02010400330cba
:020106003404bf
:02010800350cb4
:02010a00360cb1
:02010c003704b6
:02010e003804b3
:02011000390ca8
:020112003a0ca5
:020114003b04aa
:020116003c0c9f
:020118003d04a4
:02011a003e04a1
:02011c003f0c96
:02011e0040049b
:020120001f08b6
:020122002308b0
:02012400410098
:02012600420095
:0201280061086c
:02012a00820051
:02012c0087004a
:02012e008d0042
:020130008f0836
:020132009a0031
:020134009f002a
:02013600a30024
:02013800a40819
:02013a00a70814
:02013c00b50804
:02013e00bc08fb
:02014000c000fd
:02014200c208f1
:02014400d100e8
:02014600d800df
:02014800df08ce
:02014a00e308c8
:02014c00ec08bd
:02014e00f000bf
:02015000f108b4
:02015200f300b8
:02015400f404b1
:02015600420c59
:0201580043045e
:02015a00440c53
:02015c00450458
:02015e00460455
:02016000470c4a
:02016200480c47
:0201640049044c
:020166004a0449
:020168004b0c3e
:02016a004c0443
:02016c004d0c38
:02016e004e0c35
:020170004f043a
:02017200500c2f
:02017400510434
:02017600520431
:02017800530c26
:02017a0054042b
:02017c00550c20
:02017e00560c1d
:02018000570422
:0201820058041f
:02018400590c14
:020186005a0c11
:020188005b0416
:02018a005c0c0b
:02018c005d0410
:02018e005e040d
:020190005f0c02
:02019200600cff
:020194000f005a
:020196001d004a
:0201980020083d
:02019a0024003f
:02019c002c082d
:02019e00390026
:0201a000430812
:0201a200530008
:0201a400560003
:0201a6006108ee
:0201a8006208eb
:0201aa006e08dd
:0201ac007e00d3
:0201ae008308c4
:0201b0008800c5
:0201b2008e00bd
:0201b4009000b9
:0201b6009b08a4
:0201b800a000a5
:0201ba00a1089a
:0201bc00a40895
:0201be00a5009a
:0201c000a8088d
:0201c200b6087d
:0201c400bd007c
:0201c600c30074
:0201c800d20063
:0201ca00d90852
:0201cc00e00849
:0201ce00e4004b
:0201d000ed0040
:0201d200f10832
:0201d400f2082f
:0201d600f4082b
:0201d800f50c24
:0201da006204bd
:0201dc00630cb2
:0201de006404b7
:0201e000650cac
:0201e200660ca9
:0201e4006704ae
:0201e6006804ab
:0201e800690ca0
:0201ea006a0c9d
:0201ec006b04a2
:0201ee006c0c97
:0201f0006d049c
:0201f2006e0499
:0201f4006f0c8e
:0201f600700493
:0201f800710c88
:0201fa00720c85
:0201fc0073048a
:0201fe00740c7f
:02020000750483
:02020200760480
:02020400770c75
:02020600780c72
:02020800790477
:02020a007a0474
:02020c007b0c69
:02020e007c046e
:020210007d0c63
:020212007e0c60
:020214007f0465
:02021600800462
:020218000500df
:02021a000d08cd
:02021c000e08ca
:02021e001700c7
:020220001c08b8
:020222002508ad
:020224002b00ad
:020226003000a6
:0202280035009f
:02022a00380892
:02022c0053007d
:02022e00550079
:020230005b0869
:02023200740056
:020234007d004b
:020236007e0048
:02023800810c37
:02023a00820c34
:02023c00830439
:02023e00840c2e
:02024000850433
:02024200860430
:02024400870c25
:02024600880c22
:02024800890427
:02024a008a0424
:02024c008b0c19
:02024e008c041e
:020250008d0c13
:020252008e0c10
:020254008f0415
:02025600900c0a
:0202580091040f
:02025a0092040c
:02025c00930c01
:02025e00940406
:02026000950cfb
:02026200960cf8
:020264009704fd
:020266009804fa
:02026800990cef
:02026a009a0cec
:02026c009b04f1
:02026e009c0ce6
:020270009d04eb
:020272009e04e8
:020274009f0cdd
:02027600a00cda
:0202780006007e
:02027a000e086c
:02027c000f0071
:02027e00180066
:020280001d005f
:0202820026084c
:020284002c0844
:0202860031083d
:0202880036003e
:02028a00390039
:02028c00540814
:02028e00560018
:020290005c0010
:020292007508ed
:020294007e00ea
:020296007f08df
:02029800a104bf
:02029a00a204bc
:02029c00a30cb1
:02029e00a404b6
:0202a000a50cab
:0202a200a60ca8
:0202a400a704ad
:0202a600a804aa
:0202a800a90c9f
:0202aa00aa0c9c
:0202ac00ab04a1
:0202ae00ac0c96
:0202b000ad049b
:0202b200ae0498
:0202b400af0c8d
:0202b600b00492
:0202b800b10c87
:0202ba00b20c84
:0202bc00b30489
:0202be00b40c7e
:0202c000b50483
:0202c200b60480
:0202c400b70c75
:0202c600b80c72
:0202c800b90477
:0202ca00ba0474
:0202cc00bb0c69
:0202ce00bc046e
:0202d000bd0c63
:0202d200be0c60
:0202d400bf0465
:0202d600c00c5a
:0202d800070815
:0202da000f0013
:0202dc00100808
:0202de001908fd
:0202e0001e00fe
:0202e2002700f3
:0202e4002d00eb
:0202e6003208dc
:0202e8003708d5
:0202ea003a00d8
:0202ec005500bb
:0202ee005708af
:0202f0005d08a7
:0202f20076088c
:0202f4007f0881
:0202f60080087e
:0202f800c1043f
:0202fa00c2043c
:0202fc00c30c31
:0202fe00c40436
:02030000c50c2a
:02030200c60c27
:02030400c7042c
:02030600c80429
:02030800c90c1e
:02030a00ca0c1b
:02030c00cb0420
:02030e00cc0c15
:02031000cd041a
:02031200ce0417
:02031400cf0c0c
:02031600d00411
:02031800d10c06
:02031a00d20c03
:02031c00d30408
:02031e00d40cfd
:02032000d50402
:02032200d604ff
:02032400d70cf4
:02032600d80cf1
:02032800d904f6
:02032a00da04f3
:02032c00db0ce8
:02032e00dc04ed
:02033000dd0ce2
:02033200de0cdf
:02033400df04e4
:02033600e004e1
:020338000808b3
:02033a001008a9
:02033c001100ae
:02033e001a089b
:020340001f0894
:02034200200891
:02034400240093
:0203460028008d
:020348002e0085
:02034a0033007e
:02034c0038086f
:02034e003b086a
:02035000430860
:02035200560053
:02035400580847
:020356005e083f
:0203580061083a
:02035a00620837
:02035c00770028
:02035e00800815
:02036000830810
:02036200880011
:020364008e0009
:02036600a408e9
:02036800a500ee
:02036a00a808e1
:02036c00c300cc
:02036e00d200bb
:02037000d608ad
:02037200e100a8
:02037400f1088e
:02037600f40889
:02037800f50c82
:02037a00e20c93
:02037c00e30498
:02037e00e40c8d
:02038000e50492
:02038200e6048f
:02038400e70c84
:02038600e80c81
:02038800e90486
:02038a00ea0483
:02038c00eb0c78
:02038e00ec047d
:02039000ed0c72
:02039200ee0c6f
:02039400ef0474
:02039600f00c69
:02039800f1046e
:02039a00f2046b
:02039c00f30c60
:02039e00f40465
:0203a000f50c5a
:0203a200f60c57
:0203a400f7045c
:0203a600f80459
:0203a800f90c4e
:0203aa00fa0c4b
:0203ac00fb0450
:0203ae00fc0c45
:0203b000fd044a
:0203b200fe0447
:0203b400ff0c3c
:0203b600000540
:0203b80001083a
:0203ba000f0032
:0203bc0021001e
:0203be002c0809
:0203c000390002
:0203c2005300e6
:0203c4005600e1
:0203c6006000d5
:0203c8006e08bd
:0203ca007e00b3
:0203cc007f08a8
:0203ce008b00a2
:0203d00098088b
:0203d2009f008a
:0203d400a00087
:0203d600a1087c
:0203d800a20879
:0203da00a5007c
:0203dc00a90076
:0203de00b1006c
:0203e000bf0854
:0203e200c4084d
:0203e400cf0048
:0203e600d3083a
:0203e800da0831
:0203ea00db0036
:0203ec00e00827
:0203ee00eb0022
:0203f000ee001d
:0203f200f10810
:0203f400fb0408
:0203f6000204ff
:0203f800030cf4
:0203fa000404f9
:0203fc00050cee
:0203fe00060ceb
:020400000704ef
:020402000804ec
:02040400090ce1
:020406000a0cde
:020408000b04e3
:02040a000c0cd8
:02040c000d04dd
:02040e000e04da
:020410000f0ccf
:020412001004d4
:02041400110cc9
:02041600120cc6
:020418001304cb
:02041a00140cc0
:02041c001504c5
:02041e001604c2
:02042000170cb7
:02042200180cb4
:020424001904b9
:020426001a04b6
:020428001b0cab
:02042a001c04b0
:02042c001d0ca5
:02042e001e0ca2
:020430001f04a7
:020432002004a4
:020434000e08b0
:020436001008ac
:020438001c089e
:02043a0021009f
:02043c0022009c
:02043e002b0091
:020440002d008d
:02044200380878
:020444003a007c
:02044600410073
:02044800520858
:02044a00540854
:02044c00550059
:02044e0057084d
:020450006d0835
:020452006f0039
:020454007d0029
:020456007f081d
:0204580080081a
:02045a0081001f
:02045c008c080a
:02045e00990003
:02046000a000fa
:02046200a208ee
:02046400a300f3
:02046600a600ee
:02046800aa00e8
:02046a00b200de
:02046c00c000ce
:02046e00c108c3
:02047000c500c5
:02047200d008b0
:02047400d400b2
:02047600db00a9
:02047800dc089e
:02047a00ec088c
:02047c00ef0887
:02047e00f20882
:02048000fc0c72
:02048200220c4a
:0204840023044f
:02048600240c44
:02048800250449
:02048a00260446
:02048c00270c3b
:02048e00280c38
:0204900029043d
:020492002a043a
:020494002b0c2f
:020496002c0434
:020498002d0c29
:02049a002e0c26
:02049c002f042b
:02049e00300c20
:0204a000310425
:0204a200320422
:0204a400330c17
:0204a60034041c
:0204a800350c11
:0204aa00360c0e
:0204ac00370413
:0204ae00380410
:0204b000390c05
:0204b2003a0c02
:0204b4003b0407
:0204b6003c0cfc
:0204b8003d0401
:0204ba003e04fe
:0204bc003f0cf3
:0204be004004f8
:0204c0000e0824
:0204c2000f0029
:0204c4001c0812
:0204c6001d0017
:0204c8001f080b
:0204ca00230805
:0204cc002b0003
:0204ce002c08f8
:0204d0003808ea
:0204d2003900ef
:0204d4004100e5
:0204d6004200e2
:0204d8005208c8
:0204da005300cd
:0204dc005500c9
:0204de005600c6
:0204e0006108b1
:0204e2006d08a3
:0204e4006e08a0
:0204e6007d0097
:0204e8007e0094
:0204ea0081008f
:0204ec0082008c
:0204ee008d007f
:0204f0009a0070
:0204f200a1085f
:0204f400a30063
:0204f600a40858
:0204f800a70853
:0204fa00ab084d
:0204fc00b30843
:0204fe00c20832
:02050000c60033
:02050200d10026
:02050400d50818
:02050600dc080f
:02050800dd0014
:02050a00ed0002
:02050c00f000fd
:02050e00f300f8
:02051000fd04e8
:02051200420c99
:0205140043049e
:02051600440c93
:02051800450498
:02051a00460495
:02051c00470c8a
:02051e00480c87
:0205200049048c
:020522004a0489
:020524004b0c7e
:020526004c0483
:020528004d0c78
:02052a004e0c75
:02052c004f047a
:02052e00500c6f
:02053000510474
:02053200520471
:02053400530c66
:0205360054046b
:02053800550c60
:02053a00560c5d
:02053c00570462
:02053e0058045f
:02054000590c54
:020542005a0c51
:020544005b0456
:020546005c0c4b
:020548005d0450
:02054a005e044d
:02054c005f0c42
:02054e00600c3f
:02055000200881
:02055200240083
:0205540043085a
:0205560061083a
:02055800620837
:02055a0082001d
:02055c00830812
:02055e008e000d
:020560009b08f6
:02056200a208ed
:02056400a408e9
:02056600a500ee
:02056800a808e1
:02056a00ac00e3
:02056c00b400d9
:02056e00c300c8
:02057000c708ba
:02057200d200b5
:02057400d608a7
:02057600dd00a6
:02057800de00a3
:02057a00ee0091
:02057c00f10884
:02057e00f4087f
:02058000fe0477
:02058200620411
:02058400630c06
:0205860064040b
:02058800650c00
:02058a00660cfd
:02058c00670402
:02058e006804ff
:02059000690cf4
:020592006a0cf1
:020594006b04f6
:020596006c0ceb
:020598006d04f0
:02059a006e04ed
:02059c006f0ce2
:02059e007004e7
:0205a000710cdc
:0205a200720cd9
:0205a4007304de
:0205a600740cd3
:0205a8007504d8
:0205aa007604d5
:0205ac00770cca
:0205ae00780cc7
:0205b0007904cc
:0205b2007a04c9
:0205b4007b0cbe
:0205b6007c04c3
:0205b8007d0cb8
:0205ba007e0cb5
:0205bc007f04ba
:0205be008004b7
:0205c0000e0823
:0205c200110026
:0205c400150818
:0205c6001a0811
:0205c8001c080d
:0205ca0022000d
:0205cc002908fc
:0205ce002b0000
:0205d0003808e9
:0205d2003d08e2
:0205d4005208cb
:0205d6005408c7
:0205d8005500cc
:0205da005900c6
:0205dc005a00c3
:0205de006900b2
:0205e0006d08a4
:0205e20070089f
:0205e40077009e
:0205e6007d0096
:0205e800810c84
:0205ea00820c81
:0205ec00830486
:0205ee00840c7b
:0205f000850480
:0205f20086047d
:0205f400870c72
:0205f600880c6f
:0205f800890474
:0205fa008a0471
:0205fc008b0c66
:0205fe008c046b
:020600008d0c5f
:020602008e0c5c
:020604008f0461
:02060600900c56
:0206080091045b
:02060a00920458
:02060c00930c4d
:02060e00940452
:02061000950c47
:02061200960c44
:02061400970449
:02061600980446
:02061800990c3b
:02061a009a0c38
:02061c009b043d
:02061e009c0c32
:020620009d0437
:020622009e0434
:020624009f0c29
:02062600a00c26
:020628000f00c1
:02062a001200bc
:02062c001608ae
:02062e001b00af
:020630001d00ab
:0206320023089b
:020634002a0892
:020636002c088e
:02063800390087
:02063a003e0878
:02063c00530069
:02063e00550065
:02064000560062
:020642005a005c
:020644005b0851
:020646006a0048
:020648006e083a
:02064a0071003d
:02064c00780034
:02064e007e002c
:02065000a10403
:02065200a20400
:02065400a30cf5
:02065600a404fa
:02065800a50cef
:02065a00a60cec
:02065c00a704f1
:02065e00a804ee
:02066000a90ce3
:02066200aa0ce0
:02066400ab04e5
:02066600ac0cda
:02066800ad04df
:02066a00ae04dc
:02066c00af0cd1
:02066e00b004d6
:02067000b10ccb
:02067200b20cc8
:02067400b304cd
:02067600b40cc2
:02067800b504c7
:02067a00b604c4
:02067c00b70cb9
:02067e00b80cb6
:02068000b904bb
:02068200ba04b8
:02068400bb0cad
:02068600bc04b2
:02068800bd0ca7
:02068a00be0ca4
:02068c00bf04a9
:02068e00c00c9e
:02069000100850
:0206920013084b
:0206940017004d
:020696001c083e
:020698001e0042
:02069a0024003a
:02069c002b0031
:02069e002d002d
:0206a0003a001e
:0206a2003f0017
:0206a4005408f8
:0206a6005600fc
:0206a8005708f1
:0206aa005b08eb
:0206ac005c00f0
:0206ae006b08d7
:0206b0006f00d9
:0206b2007200d4
:0206b4007908c3
:0206b6007f08bb
:0206b800c1047b
:0206ba00c20478
:0206bc00c30c6d
:0206be00c40472
:0206c000c50c67
:0206c200c60c64
:0206c400c70469
:0206c600c80466
:0206c800c90c5b
:0206ca00ca0c58
:0206cc00cb045d
:0206ce00cc0c52
:0206d000cd0457
:0206d200ce0454
:0206d400cf0c49
:0206d600d0044e
:0206d800d10c43
:0206da00d20c40
:0206dc00d30445
:0206de00d40c3a
:0206e000d5043f
:0206e200d6043c
:0206e400d70c31
:0206e600d80c2e
:0206e800d90433
:0206ea00da0430
:0206ec00db0c25
:0206ee00dc042a
:0206f000dd0c1f
:0206f200de0c1c
:0206f400df0421
:0206f600e0041e
:0206f8001100ef
:0206fa001400ea
:0206fc001800e4
:0206fe001d00dd
:020700001f08d0
:020702002508c8
:020704002c08bf
:020706002e00c3
:020708003b08ac
:02070a004008a5
:02070c00550096
:02070e0057088a
:02071000580887
:020712005c0089
:020714005d087e
:020716006c0075
:02071800700867
:02071a00730862
:02071c007a0859
:02071e00800851
:02072000e10cea
:02072200e20ce7
:02072400e304ec
:02072600e40ce1
:02072800e504e6
:02072a00e604e3
:02072c00e70cd8
:02072e00e80cd5
:02073000e904da
:02073200ea04d7
:02073400eb0ccc
:02073600ec04d1
:02073800ed0cc6
:02073a00ee0cc3
:02073c00ef04c8
:02073e00f00cbd
:02074000f104c2
:02074200f204bf
:02074400f30cb4
:02074600f404b9
:02074800f50cae
:02074a00f60cab
:02074c00f704b0
:02074e00f804ad
:02075000f90ca2
:02075200fa0c9f
:02075400fb04a4
:02075600fc0c99
:02075800fd049e
:02075a00fe049b
:02075c00ff0c90
:02075e00000594
:0207600001088e
:020762000f0086
:02076400210072
:020766002c085d
:02076800390056
:02076a0053003a
:02076c00560035
:02076e00600029
:020770006e0811
:020772007e0007
:020774007f08fc
:020776008508f4
:020778008a08ed
:02077a008b00f2
:02077c009c00df
:02077e009e08d3
:02078000a000d7
:02078200a108cc
:02078400a208c9
:02078600a500cc
:02078800a600c9
:02078a00a708be
:02078c00ba08a9
:02078e00d10098
:02079000d3088c
:02079200d8008d
:02079400e0087b
:02079600ee0073
:02079800ef0868
:02079a00f10864
:02079c00f20861
:02079e00f60063
:0207a000fa0c51
:0207a20002044f
:0207a400030c44
:0207a600040449
:0207a800050c3e
:0207aa00060c3b
:0207ac00070440
:0207ae0008043d
:0207b000090c32
:0207b2000a0c2f
:0207b4000b0434
:0207b6000c0c29
:0207b8000d042e
:0207ba000e042b
:0207bc000f0c20
:0207be00100425
:0207c000110c1a
:0207c200120c17
:0207c40013041c
:0207c600140c11
:0207c800150416
:0207ca00160413
:0207cc00170c08
:0207ce00180c05
:0207d00019040a
:0207d2001a0407
:0207d4001b0cfc
:0207d6001c0401
:0207d8001d0cf6
:0207da001e0cf3
:0207dc001f04f8
:0207de002004f5
:0207e0000e0801
:0207e2001008fd
:0207e4001c08ef
:0207e6002100f0
:0207e8002200ed
:0207ea002b00e2
:0207ec002d00de
:0207ee003808c9
:0207f0003a00cd
:0207f2004100c4
:0207f4005208a9
:0207f6005408a5
:0207f8005500aa
:0207fa0057089e
:0207fc006d0886
:0207fe006f008a
:020800007d0079
:020802007f086d
:0208040080086a
:0208060081006f
:02080800860860
:02080a008b0061
:02080c008c0856
:02080e009d0843
:020810009f0047
:02081200a2083a
:02081400a3003f
:02081600a6003a
:02081800a7082f
:02081a00a8082c
:02081c00bb001f
:02081e00c1080f
:02082000d20004
:02082200d40000
:02082400d908f1
:02082600ef08d9
:02082800f000de
:02082a00f208d2
:02082c00f300d7
:02082e00f708c9
:02083000fb04c7
:02083200220c96
:0208340023049b
:02083600240c90
:02083800250495
:02083a00260492
:02083c00270c87
:02083e00280c84
:02084000290489
:020842002a0486
:020844002b0c7b
:020846002c0480
:020848002d0c75
:02084a002e0c72
:02084c002f0477
:02084e00300c6c
:02085000310471
:0208520032046e
:02085400330c63
:02085600340468
:02085800350c5d
:02085a00360c5a
:02085c0037045f
:02085e0038045c
:02086000390c51
:020862003a0c4e
:020864003b0453
:020866003c0c48
:020868003d044d
:02086a003e044a
:02086c003f0c3f
:02086e00400444
:020870001f085f
:02087200230859
:02087400410041
:0208760042003e
:02087800610815
:02087a008200fa
:02087c008700f3
:02087e008c08e4
:020880008d00e9
:020882009e08ce
:02088400a000d2
:02088600a300cd
:02088800a408c2
:02088a00a708bd
:02088c00a808ba
:02088e00a900bf
:02089000bc08a2
:02089200c2089a
:02089400d30887
:02089600d50883
:02089800da087c
:02089a00f0006c
:02089c00f10861
:02089e00f30065
:0208a000f4085a
:0208a200f80854
:0208a400fc0c4a
:0208a600420c02
:0208a800430407
:0208aa00440cfc
:0208ac00450401
:0208ae004604fe
:0208b000470cf3
:0208b200480cf0
:0208b4004904f5
:0208b6004a04f2
:0208b8004b0ce7
:0208ba004c04ec
:0208bc004d0ce1
:0208be004e0cde
:0208c0004f04e3
:0208c200500cd8
:0208c4005104dd
:0208c6005204da
:0208c800530ccf
:0208ca005404d4
:0208cc00550cc9
:0208ce00560cc6
:0208d0005704cb
:0208d2005804c8
:0208d400590cbd
:0208d6005a0cba
:0208d8005b04bf
:0208da005c0cb4
:0208dc005d04b9
:0208de005e04b6
:0208e0005f0cab
:0208e200600ca8
:0208e4000e08fc
:0208e6001c08ec
:0208e8002008e6
:0208ea002400e8
:0208ec002b00df
:0208ee003808c8
:0208f0004308bb
:0208f2005208aa
:0208f4005500ad
:0208f600610897
:0208f800620894
:0208fa006d0887
:0208fc007d007d
:0208fe00810077
:0209000083086a
:0209020088006b
:020904008d0064
:020906008e0061
:020908009f004e
:02090a00a4083f
:02090c00a50044
:02090e00a80837
:02091000a9003c
:02091200aa0039
:02091400bd0024
:02091600c3001c
:02091800d40009
:02091a00d608fd
:02091c00db00fe
:02091e00f108de
:02092000f208db
:02092200f408d7
:02092400f500dc
:02092600f900d6
:02092800fd04cc
:02092a00620465
:02092c00630c5a
:02092e0064045f
:02093000650c54
:02093200660c51
:02093400670456
:02093600680453
:02093800690c48
:02093a006a0c45
:02093c006b044a
:02093e006c0c3f
:020940006d0444
:020942006e0441
:020944006f0c36
:0209460070043b
:02094800710c30
:02094a00720c2d
:02094c00730432
:02094e00740c27
:0209500075042c
:02095200760429
:02095400770c1e
:02095600780c1b
:02095800790420
:02095a007a041d
:02095c007b0c12
:02095e007c0417
:020960007d0c0c
:020962007e0c09
:020964007f040e
:0209660080040b
:02096800050088
:02096a00060085
:02096c000e0873
:02096e00190866
:020970001c0861
:0209720027005c
:020974002b0056
:02097600320845
:02097800340841
:02097a0038083b
:02097c00490828
:02097e004d002a
:0209800052081b
:0209820055001e
:020984005d080c
:02098600690006
:020988006a0003
:02098a006d08f6
:02098c007800f1
:02098e007d00ea
:02099000810cd8
:02099200820cd5
:020994008304da
:02099600840ccf
:020998008504d4
:02099a008604d1
:02099c00870cc6
:02099e00880cc3
:0209a0008904c8
:0209a2008a04c5
:0209a4008b0cba
:0209a6008c04bf
:0209a8008d0cb4
:0209aa008e0cb1
:0209ac008f04b6
:0209ae00900cab
:0209b0009104b0
:0209b2009204ad
:0209b400930ca2
:0209b6009404a7
:0209b800950c9c
:0209ba00960c99
:0209bc0097049e
:0209be0098049b
:0209c000990c90
:0209c2009a0c8d
:0209c4009b0492
:0209c6009c0c87
:0209c8009d048c
:0209ca009e0489
:0209cc009f0c7e
:0209ce00a00c7b
:0209d00006001f
:0209d200070814
:0209d4000f0012
:0209d6001a08fd
:0209d8001d0000
:0209da002800f3
:0209dc002c08e5
:0209de003300e4
:0209e0003500e0
:0209e2003900da
:0209e4004a08bf
:0209e6004e00c1
:0209e8005300ba
:0209ea005600b5
:0209ec005e08a3
:0209ee006a009d
:0209f0006b0892
:0209f2006e088d
:0209f400790880
:0209f6007e0081
:0209f800a10458
:0209fa00a20455
:0209fc00a30c4a
:0209fe00a4044f
:020a0000a50c43
:020a0200a60c40
:020a0400a70445
:020a0600a80442
:020a0800a90c37
:020a0a00aa0c34
:020a0c00ab0439
:020a0e00ac0c2e
:020a1000ad0433
:020a1200ae0430
:020a1400af0c25
:020a1600b0042a
:020a1800b10c1f
:020a1a00b20c1c
:020a1c00b30421
:020a1e00b40c16
:020a2000b5041b
:020a2200b60418
:020a2400b70c0d
:020a2600b80c0a
:020a2800b9040f
:020a2a00ba040c
:020a2c00bb0c01
:020a2e00bc0406
:020a3000bd0cfb
:020a3200be0cf8
:020a3400bf04fd
:020a3600c00cf2
:020a38000708ad
:020a3a000808aa
:020a3c001008a0
:020a3e001b009b
:020a40001e0096
:020a4200290881
:020a44002d0083
:020a4600340872
:020a4800360076
:020a4a003a0070
:020a4c004b005d
:020a4e004f084f
:020a5000540848
:020a5200570843
:020a54005f0041
:020a56006b082b
:020a58006c0030
:020a5a006f002b
:020a5c007a0816
:020a5e007f080f
:020a6000c104cf
:020a6200c204cc
:020a6400c30cc1
:020a6600c404c6
:020a6800c50cbb
:020a6a00c60cb8
:020a6c00c704bd
:020a6e00c804ba
:020a7000c90caf
:020a7200ca0cac
:020a7400cb04b1
:020a7600cc0ca6
:020a7800cd04ab
:020a7a00ce04a8
:020a7c00cf0c9d
:020a7e00d004a2
:020a8000d10c97
:020a8200d20c94
:020a8400d30499
:020a8600d40c8e
:020a8800d50493
:020a8a00d60490
:020a8c00d70c85
:020a8e00d80c82
:020a9000d90487
:020a9200da0484
:020a9400db0c79
:020a9600dc047e
:020a9800dd0c73
:020a9a00de0c70
:020a9c00df0475
:020a9e00e00472
:020aa000080844
:020aa200090049
:020aa40011003f
:020aa6001c082a
:020aa8001f0825
:020aaa002a0818
:020aac002e001a
:020aae00350011
:020ab000370805
:020ab2003b08ff
:020ab4004c08ec
:020ab6005000ee
:020ab8005500e7
:020aba005808da
:020abc006000d8
:020abe006c00ca
:020ac0006d08bf
:020ac2007008ba
:020ac4007b00b5
:020ac6008008a6
:020ac800e10c3f
:020aca00e20c3c
:020acc00e30441
:020ace00e40c36
:020ad000e5043b
:020ad200e60438
:020ad400e70c2d
:020ad600e80c2a
:020ad800e9042f
:020ada00ea042c
:020adc00eb0c21
:020ade00ec0426
:020ae000ed0c1b
:020ae200ee0c18
:020ae400ef041d
:020ae600f00c12
:020ae800f10417
:020aea00f20414
:020aec00f30c09
:020aee00f4040e
:020af000f50c03
:020af200f60c00
:020af400f70405
:020af600f80402
:020af800f90cf7
:020afa00fa0cf4
:020afc00fb04f9
:020afe00fc0cee
:020b0000fd04f2
:020b0200fe04ef
:020b0400ff0ce4
:020b06000005e8
:020b08000108e2
:020b0a000e08d3
:020b0c000f00d8
:020b0e001c08c1
:020b10002100c2
:020b12002b00b6
:020b14002c08ab
:020b160038089d
:020b18003900a2
:020b1a0052087f
:020b1c00530084
:020b1e00550080
:020b200056007d
:020b2200600071
:020b24006d085a
:020b26006e0857
:020b28007d004e
:020b2a007e004b
:020b2c007f0840
:020b2e00810044
:020b3000850836
:020b32008b0036
:020b3400a0001f
:020b3600a10814
:020b3800a20811
:020b3a00a50014
:020b3c00cf00e8
:020b3e00d308da
:020b4000e008cb
:020b4200ee00c3
:020b4400f108b6
:020b4600f204b7
:020b48000208a1
:020b4a00820c1b
:020b4c000300a4
:020b4e0083041e
:020b5000040897
:020b5200840c11
:020b540005009a
:020b5600850414
:020b5800060095
:020b5a0086040f
:020b5c00070888
:020b5e00870c02
:020b6000080883
:020b6200880cfd
:020b6400090086
:020b6600890400
:020b68000a0081
:020b6a008a04fb
:020b6c000b0874
:020b6e008b0cee
:020b70000c0077
:020b72008c04f1
:020b74000d086a
:020b76008d0ce4
:020b78000e0865
:020b7a008e0cdf
:020b7c000f0068
:020b7e008f04e2
:020b800010085b
:020b8200900cd5
:020b840011005e
:020b86009104d8
:020b8800120059
:020b8a009204d3
:020b8c0013084c
:020b8e00930cc6
:020b900014004f
:020b92009404c9
:020b9400150842
:020b9600950cbc
:020b980016083d
:020b9a00960cb7
:020b9c00170040
:020b9e009704ba
:020ba00018003b
:020ba2009804b5
:020ba40019082e
:020ba600990ca8
:020ba8001a0829
:020baa009a0ca3
:020bac001b002c
:020bae009b04a6
:020bb0001c081f
:020bb2009c0c99
:020bb4001d0022
:020bb6009d049c
:020bb8001e001d
:020bba009e0497
:020bbc001f0810
:020bbe009f0c8a
:020bc00020080b
:020bc200a00c85
:020bc4000e0819
:020bc6000f001e
:020bc800100813
:020bca001c0805
:020bcc001d000a
:020bce00210004
:020bd000220001
:020bd2002b00f6
:020bd4002c08eb
:020bd6002d00f0
:020bd8003808db
:020bda003900e0
:020bdc003a00dd
:020bde004100d4
:020be0005208b9
:020be2005300be
:020be4005408b3
:020be6005500b8
:020be8005600b5
:020bea005708aa
:020bec006d0892
:020bee006e088f
:020bf0006f0094
:020bf2007d0084
:020bf4007e0081
:020bf6007f0876
:020bf800800873
:020bfa00810078
:020bfc00860869
:020bfe008c0861
:020c0000a10849
:020c0200a20846
:020c0400a3004b
:020c0600a60046
:020c0800c10821
:020c0a00d00810
:020c0c00d40012
:020c0e00ef08ed
:020c1000f208e8
:020c1200f30ce1
:020c14002200bc
:020c1600a20436
:020c18002308af
:020c1a00a30c29
:020c1c002400b2
:020c1e00a4042c
:020c20002508a5
:020c2200a50c1f
:020c24002608a0
:020c2600a60c1a
:020c28002700a3
:020c2a00a7041d
:020c2c0028009e
:020c2e00a80418
:020c3000290891
:020c3200a90c0b
:020c34002a088c
:020c3600aa0c06
:020c38002b008f
:020c3a00ab0409
:020c3c002c0882
:020c3e00ac0cfc
:020c40002d0085
:020c4200ad04ff
:020c44002e0080
:020c4600ae04fa
:020c48002f0873
:020c4a00af0ced
:020c4c00300076
:020c4e00b004f0
:020c5000310869
:020c5200b10ce3
:020c5400320864
:020c5600b20cde
:020c5800330067
:020c5a00b304e1
:020c5c0034085a
:020c5e00b40cd4
:020c600035005d
:020c6200b504d7
:020c6400360058
:020c6600b604d2
:020c680037084b
:020c6a00b70cc5
:020c6c00380846
:020c6e00b80cc0
:020c7000390049
:020c7200b904c3
:020c74003a0044
:020c7600ba04be
:020c78003b0837
:020c7a00bb0cb1
:020c7c003c003a
:020c7e00bc04b4
:020c80003d082d
:020c8200bd0ca7
:020c84003e0828
:020c8600be0ca2
:020c88003f002b
:020c8a00bf04a5
:020c8c0040081e
:020c8e00c00c98
:020c900010084a
:020c92001e0042
:020c94001f0837
:020c9600230831
:020c98002d002d
:020c9a003a001e
:020c9c00410015
:020c9e00420012
:020ca0005408f6
:020ca2005708f1
:020ca4006108e5
:020ca6006f00dd
:020ca8007f08c3
:020caa008200c6
:020cac008700bf
:020cae008d00b7
:020cb000a3009f
:020cb200a40894
:020cb400a7088f
:020cb600c10873
:020cb800c20870
:020cba00d10067
:020cbc00d50859
:020cbe00f00044
:020cc000f3003f
:020cc200f40438
:020cc4004200ec
:020cc600c20466
:020cc8004308df
:020cca00c30c59
:020ccc004400e2
:020cce00c4045c
:020cd0004508d5
:020cd200c50c4f
:020cd4004608d0
:020cd600c60c4a
:020cd8004700d3
:020cda00c7044d
:020cdc004800ce
:020cde00c80448
:020ce0004908c1
:020ce200c90c3b
:020ce4004a08bc
:020ce600ca0c36
:020ce8004b00bf
:020cea00cb0439
:020cec004c08b2
:020cee00cc0c2c
:020cf0004d00b5
:020cf200cd042f
:020cf4004e00b0
:020cf600ce042a
:020cf8004f08a3
:020cfa00cf0c1d
:020cfc005000a6
:020cfe00d00420
:020d0000510898
:020d0200d10c12
:020d0400520893
:020d0600d20c0d
:020d0800530096
:020d0a00d30410
:020d0c00540889
:020d0e00d40c03
:020d100055008c
:020d1200d50406
:020d1400560087
:020d1600d60401
:020d180057087a
:020d1a00d70cf4
:020d1c00580875
:020d1e00d80cef
:020d2000590078
:020d2200d904f2
:020d24005a0073
:020d2600da04ed
:020d28005b0866
:020d2a00db0ce0
:020d2c005c0069
:020d2e00dc04e3
:020d30005d085c
:020d3200dd0cd6
:020d34005e0857
:020d3600de0cd1
:020d38005f005a
:020d3a00df04d4
:020d3c00600055
:020d3e00e004cf
:020d40001100a0
:020d42001f0888
:020d4400200885
:020d4600240087
:020d48002e007b
:020d4a003b0864
:020d4c0043085a
:020d4e0055004e
:020d5000580841
:020d5200610836
:020d5400620833
:020d5600700823
:020d5800800811
:020d5a0083080c
:020d5c0088000d
:020d5e008e0005
:020d6000a408e5
:020d6200a500ea
:020d6400a808dd
:020d6600c300c8
:020d6800d200b7
:020d6a00d608a9
:020d6c00e100a4
:020d6e00f1088a
:020d7000f40885
:020d7200f50c7e
:020d7400620813
:020d7600e20c8d
:020d7800630016
:020d7a00e30490
:020d7c00640809
:020d7e00e40c83
:020d800065000c
:020d8200e50486
:020d8400660007
:020d8600e60481
:020d88006708fa
:020d8a00e70c74
:020d8c006808f5
:020d8e00e80c6f
:020d90006900f8
:020d9200e90472
:020d94006a00f3
:020d9600ea046d
:020d98006b08e6
:020d9a00eb0c60
:020d9c006c00e9
:020d9e00ec0463
:020da0006d08dc
:020da200ed0c56
:020da4006e08d7
:020da600ee0c51
:020da8006f00da
:020daa00ef0454
:020dac007008cd
:020dae00f00c47
:020db0007100d0
:020db200f1044a
:020db4007200cb
:020db600f20445
:020db8007308be
:020dba00f30c38
:020dbc007400c1
:020dbe00f4043b
:020dc0007508b4
:020dc200f50c2e
:020dc4007608af
:020dc600f60c29
:020dc8007700b2
:020dca00f7042c
:020dcc007800ad
:020dce00f80427
:020dd0007908a0
:020dd200f90c1a
:020dd4007a089b
:020dd600fa0c15
:020dd8007b009e
:020dda00fb0418
:020ddc007c0891
:020dde00fc0c0b
:020de0007d0094
:020de200fd040e
:020de4007e008f
:020de600fe0409
:020de8007f0882
:020dea00ff0cfc
:020dec0080087d
:020dee000005fe
:020df0000e08eb
:020df2001400eb
:020df4001c08d9
:020df6001f08d4
:020df8002b00ce
:020dfa003708b8
:020dfc003808b5
:020dfe004008ab
:020e00005000a0
:020e0200520894
:020e0400550097
:020e060057088b
:020e08006b0875
:020e0a006d0871
:020e0c00710073
:020e0e007d0065
:020e1000810c53
:020e1200820c50
:020e1400830455
:020e1600840c4a
:020e180085044f
:020e1a0086044c
:020e1c00870c41
:020e1e00880c3e
:020e2000890443
:020e22008a0440
:020e24008b0c35
:020e26008c043a
:020e28008d0c2f
:020e2a008e0c2c
:020e2c008f0431
:020e2e00900c26
:020e300091042b
:020e3200920428
:020e3400930c1d
:020e3600940422
:020e3800950c17
:020e3a00960c14
:020e3c00970419
:020e3e00980416
:020e4000990c0b
:020e42009a0c08
:020e44009b040d
:020e46009c0c02
:020e48009d0407
:020e4a009e0404
:020e4c009f0cf9
:020e4e00a00cf6
:020e50000e088a
:020e52000f008f
:020e5400100884
:020e560015087d
:020e58001c0874
:020e5a001d0079
:020e5c0020086c
:020e5e00210071
:020e600022006e
:020e62002b0063
:020e64002c0858
:020e66002d005d
:020e680039004f
:020e6a003a004c
:020e6c00410043
:020e6e00510829
:020e7000520826
:020e720053002b
:020e7400540820
:020e7600550025
:020e7800560022
:020e7a00570817
:020e7c00580814
:020e7e006c0006
:020e80006d08fb
:020e82006e08f8
:020e84006f00fd
:020e86007200f8
:020e88007d00eb
:020e8a007e00e8
:020e8c007f08dd
:020e8e008008da
:020e90008100df
:020e92008608d0
:020e94008c08c8
:020e9600a108b1
:020e9800a208ae
:020e9a00a300b3
:020e9c00a600ae
:020e9e00c10889
:020ea000d00878
:020ea200d4007a
:020ea400ef0855
:020ea600f20850
:020ea800f30c49
:020eaa00a204a0
:020eac00a30c95
:020eae00a4049a
:020eb000a50c8f
:020eb200a60c8c
:020eb400a70491
:020eb600a8048e
:020eb800a90c83
:020eba00aa0c80
:020ebc00ab0485
:020ebe00ac0c7a
:020ec000ad047f
:020ec200ae047c
:020ec400af0c71
:020ec600b00476
:020ec800b10c6b
:020eca00b20c68
:020ecc00b3046d
:020ece00b40c62
:020ed000b50467
:020ed200b60464
:020ed400b70c59
:020ed600b80c56
:020ed800b9045b
:020eda00ba0458
:020edc00bb0c4d
:020ede00bc0452
:020ee000bd0c47
:020ee200be0c44
:020ee400bf0449
:020ee600c00c3e
:020ee8000108ff
:020eea000f00f7
:020eec001008ec
:020eee001608e4
:020ef0001e00e2
:020ef2002100dd
:020ef4002200da
:020ef6002c08c6
:020ef8002d00cb
:020efa003a00bc
:020efc0052089a
:020efe0053009f
:020f0000540893
:020f0200560097
:020f040057088c
:020f0600590090
:020f0800600087
:020f0a006d0870
:020f0c006e086d
:020f0e006f0072
:020f1000730864
:020f12007e005f
:020f140085084e
:020f16008b004e
:020f1800a00037
:020f1a00a1082c
:020f1c00a20829
:020f1e00a5002c
:020f2000c10806
:020f2200cf00fe
:020f2400d308f0
:020f2600e008e1
:020f2800ee00d9
:020f2a00f108cc
:020f2c00f204cd
:020f2e00c204fb
:020f3000c30cf0
:020f3200c404f5
:020f3400c50cea
:020f3600c60ce7
:020f3800c704ec
:020f3a00c804e9
:020f3c00c90cde
:020f3e00ca0cdb
:020f4000cb04e0
:020f4200cc0cd5
:020f4400cd04da
:020f4600ce04d7
:020f4800cf0ccc
:020f4a00d004d1
:020f4c00d10cc6
:020f4e00d20cc3
:020f5000d304c8
:020f5200d40cbd
:020f5400d504c2
:020f5600d604bf
:020f5800d70cb4
:020f5a00d80cb1
:020f5c00d904b6
:020f5e00da04b3
:020f6000db0ca8
:020f6200dc04ad
:020f6400dd0ca2
:020f6600de0c9f
:020f6800df04a4
:020f6a00e004a1
:020f6c00020879
:020f6e00110070
:020f7000170068
:020f72001f0856
:020f7400230850
:020f76002e004b
:020f78003a003d
:020f7a003b0832
:020f7c00530020
:020f7e0055001c
:020f800058080f
:020f82005a0013
:020f84006e08f5
:020f86007008f1
:020f88007400f3
:020f8a008008dd
:020f8c00e10c76
:020f8e00e20c73
:020f9000e30478
:020f9200e40c6d
:020f9400e50472
:020f9600e6046f
:020f9800e70c64
:020f9a00e80c61
:020f9c00e90466
:020f9e00ea0463
:020fa000eb0c58
:020fa200ec045d
:020fa400ed0c52
:020fa600ee0c4f
:020fa800ef0454
:020faa00f00c49
:020fac00f1044e
:020fae00f2044b
:020fb000f30c40
:020fb200f40445
:020fb400f50c3a
:020fb600f60c37
:020fb800f7043c
:020fba00f80439
:020fbc00f90c2e
:020fbe00fa0c2b
:020fc000fb0430
:020fc200fc0c25
:020fc400fd042a
:020fc600fe0427
:020fc800ff0c1c
:020fca00000520
:00000001FF